:10000000B5EF04F02DC02FF02CC02EF0020E2C24E2
:10001000306E000E2D20316E326A3250080822E315
:1000200030C0E9FF31C0EAFFECCF03F0ED52EFCF73
:1000300035F02FC0EAFF2EC0E9FF03C0ECFFED5200
:1000400035C0EFFF3250322A2FC003F02EC000F02F
:10005000020E2E26D8B02F2A0050020E3026D8B01D
:10006000312ADBD750EF02F08E0E006E2DC001F06A
:100070002CC002F0036A015209E102C001F0026AD9
:10008000080E005E015202E1006A08D0D89001BE5D
:1000900004D0023601360006F9D7019E1200800E08
:1000A000D8B2331A386A396A2FC037F03350371A4A
:1000B0002E50D8B4DCD0366E006E3250D8B4E0D0BA
:1000C000365ED8B481D03DE333C03CF03C8E34C0C2
:1000D0003BF035C03AF0396AD8903C323B323A3284
:1000E0003932362EF8D737AE03D03880DDD038908D
:1000F00036903888EA6A310EE96EE9D0389837BE12
:100100000AD036A013D03C323B323A323932002A80
:10011000D8B4C5D00BD03CBE0CD0D89039363A36C6
:100120003B363C360006D8B4BAD0F5D7388C6BD005
:10013000389C2FC037F02FAE02D03C8EA9D03C9E09
:10014000A7D032C036F032C000F02E50365E2FC03D
:100150003CF03C8E30C03BF031C03AF0396AD89068
:100160003C323B323A323932362EF8D737AE03D0F2
:1001700038829AD038923690388AEA6A350EE96E1B
:10018000A6D0389A37BE0AD036A013D03C323B32C4
:100190003A323932002AD8B482D00BD03CBE0CD0CF
:1001A000D89039363A363B363C360006D8B477D04C
:1001B000F5D7388E28D0389E33C037F033AE02D012
:1001C0003C8E66D03C9E64D033C03CF03C8E34C044
:1001D0003BF035C03AF037AE04D03C9E388464D052
:1001E0003894396A3690EA6A310EE96E70D037BEBB
:1001F0001CD02FC037F036A006D03C323B323A320A
:100200003932002A4CE039AE0BD03A2A09E13B2AB8
:1002100007E13C2A05E13C323B323A32002A3FE01A
:1002200038BC86D738BEC7D71CD0800E3C1A3CAE2F
:1002300004D03AD033C037F00AD02FC037F03C5248
:1002400006E13B5204E13A5202E1006A21D03CBE91
:1002500008D0D89039363A363B363C36002EF7D7A0
:100260001ED037AE02D03C8E13D03C9E11D032C08F
:1002700000F033C03CF034C03BF035C03AF008D059
:100280002EC000F02FC03CF030C03BF031C03AF03F
:100290003CC001F03BC002F03AC003F034D0006A29
:1002A000016A026A036A2FD0396A3A1E3B1E3C1E5D
:1002B000391E392A05E13A2A03E13B2A01E13C2AA9
:1002C00038B015D738B256D738B48AD7B3D7EF502D
:1002D0003A2605E33B2A03E13C2AD8B43680ED52A6
:1002E000EF503B2603E33C2AD8B43680ED52EF5062
:1002F000EFBE01D0800A3C26D8B0368038B8FED692
:1003000038BA3FD774D77DEF02F02C50D8B4A5D0BF
:10031000386E3050D8B4A1D0385E05E37F0E382651
:10032000D8B09BD006D0810E385ED8A096D0D8B475
:1003300094D038C000F0016A026A036A376A2DC09F
:1003400036F0368E2EC035F02FC034F0190E386ED0
:100350003350345E0DE2010E355E0AE2365E08E28D
:10036000375E06E2372A362A352A3350342628D01B
:100370003250355E12E2010E365E0FE2375E0DE25C
:10038000372A362A325035263350342619E3352A97
:1003900017E1362A15E1372A13D031508009365E2D
:1003A0000EE2010E375E0BE2372A31508009362605
:1003B00032503526E9E3362AE7E1372AE5D70380CC
:1003C000382E01D00BD0D890343635363636373605
:1003D000D8900336023601363936BAD739A006D05E
:1003E000D890013202320332393202D0000635E0B1
:1003F00039BE1ED0D890343635363636373633507F
:10040000345E07E2010E355E04E2365E02E2375EDC
:100410001AE33250355E05E2010E365E02E2375EC7
:1004200012E331508009365E03E2010E375E0BE3C2
:10043000032A09E1022A07E1012A05E1002A0DE069
:100440000132023203322DC038F03150381A38AE42
:1004500002D0018E06D0019E04D0006A016A026AB1
:10046000036AA5EF02F0286A276A266A256A045003
:10047000090812E30450042A006ED8900036005098
:10048000036A050FE96E000E0320EA6E24C0ECFF3C
:10049000ED5223C0EFFF08D02D6A050E2C6EB2D5A9
:1004A00024C018F023C017F02A6A050E296E2B6AA3
:1004B0002B50090835E329C0E9FF2AC0EAFFECCF39
:1004C00003F0ED52EFCF2CF003C02DF0CDDDEACFDD
:1004D0002DF0E9CF2CF0D89228C031F027C030F0B1
:1004E00026C02FF025C02EF003C035F002C034F036
:1004F00001C033F000C032F0D2D52DC0EAFF2CC0CD
:10050000E9FF03C028F002C027F001C026F000C0B8
:1005100025F02B502B2A020E2926D8B02A2AC8D71C
:100520002D6A04C02CF0A0DD28C02FF027C02EF0CB
:1005300026C02DF025C02CF003C033F002C032F0ED
:1005400001C031F000C030F0E0D6EEEF04F022C080
:1005500029F02650291A29AE05D0D894D89022BE69
:10056000D8802FD022C029F025C02AF021502A5E41
:1005700006E029AE26D0D850010AD86E22D026C077
:100580002AF022502A5E06E029AE1BD0D850010A7C
:10059000D86E17D027C02AF023502A5E06E029AE75
:1005A00010D0D850010AD86E0CD028C02AF02450A0
:1005B0002A5E06E029AE05D0D850010AD86E01D0D7
:1005C000D89007EF05F02E50D8B471D0006E32509D
:1005D000D8B46DD0002604E3810E002668E204D072
:1005E0007F0E005E64E363E02FC036F03350361AAE
:1005F0002F8E338E31503502F4CF38F03050340224
:10060000F4CF03F0F3CF37F03502F3503826F4502F
:100610003722000E032231503402F3503826F450B2
:100620003722000E026A032202222F503502F350B5
:100630003726F4500322000E02222F503402F350CA
:100640000326F4500222000E016A012231503302C7
:10065000F3503726F4500322000E022201223050BC
:100660003302F3500326F4500222000E01222F50D1
:100670003302F3500226F4500122002A01BE05D0B5
:1006800037360336023601360006000E37AE0AD082
:10069000032A02220122015005E1025003E1035026
:1006A00001E1002A36BE018E36AE019E04D0006AFA
:1006B000016A026A036AF8EF03F02E50B6082E6E44
:1006C000036A2FC032F02F8ED8902F323032313261
:1006D00003320232013200322E2EF6D732AE0BD068
:1006E000001E011E021E031E002AD8B4012AD8B41F
:1006F000022AD8B4032A0BEF04F0D8B203D0EA6A76
:10070000360EE96E006A016A026A036A366A376A5F
:10071000386A396A35503410331032102CE0200E0C
:100720003A6ED8902E362F3630363136363637364A
:10073000383639363550395C08E13450385C05E1DB
:100740003350375C02E13250365C0FE33250365E94
:100750003350D8A0333C375E3450D8A0343C385E98
:100760003550D8A0353C395ED88000360136023687
:1007700003363A2ED6D736C0EFFF37C0ECFF38C06D
:10078000ECFF39C0ECFF1200949C8B9C080E016EAC
:1007900000D00000018E0ED0019E2E32D8B08B8C7E
:1007A000D8A08B9C018C06D0019C012EF6D700D0DE
:1007B00000008B8C7C0EE96EE92EFED7000001BE96
:1007C000EBD701BCF1D71200E950266E2550286EF8
:1007D00019E024C031F023C030F022C02FF021C036
:1007E0002EF0356A346A200E336E820E326EEBD6EE
:1007F00003C024F002C023F001C022F000C021F0A9
:10080000282EE7D724C031F023C030F022C02FF0CB
:1008100021C02EF052D703C024F002C023F001C043
:1008200022F000C021F024AE0DD02606268A211E1B
:10083000221E231E241E212AD8B4222AD8B4232AF9
:10084000D8B4242A3B0E2D6E9A0E2C6ECA0E2B6E37
:100850002A6A0A0E286E2550D8B4262AD882EA6A57
:10086000210EE96E24C031F023C030F022C02FF0F9
:1008700021C02EF02DC035F02CC034F02BC033F049
:100880002AC032F03ADF015000520FE12528285CDF
:100890000CE026500CE00F0B285C01E037E226BE8E
:1008A00035D026BC04D0200E2DD0200E261626AA28
:1008B0000CD0269A2550D8A426060050266E2D0E60
:1008C0002E6E62DF2650006E266A2550285C0AE1F3
:1008D0000050266E2E0E2E6E57DF2650006E200E14
:1008E0002616000E300E26AA0DD0269A2550D8A422
:1008F00026060050266E2D0E2E6E46DF2650006E08
:10090000266A300E002600C02EF03EDFD8922DC0A1
:1009100031F02CC030F02BC02FF02AC02EF0356AF9
:10092000346A336A0A0E326EE8DE03C02DF002C06C
:100930002CF001C02BF000C02AF0282E8FD7120017
:10094000EA6A210EE96EEF500EE0040E016E006AB5
:10095000002EFED7012EFBD7DC0E006E002EFED738
:100960000000EF2EF2D736EF05F0F86AD09EFE0EAB
:10097000006E060E016E020EE96E000EEA6EEE6A61
:10098000002EFDD7012EFBD7EA6AE96A949C8B8C76
:10099000C180C182C184C196C190C182C184C18617
:1009A000C19CC28CC28EC18EC280000E016EC2502C
:1009B000C70B0110C26E7C0E006E002EFED700D059
:1009C000C284C2B4FED7C4CF03F0C3CF21F0C4CFDA
:1009D00022F0C4CF24F0C3CF23F045D503C01CF0D0
:1009E00002C01BF001C01AF000C019F01CC024F0B6
:1009F0001BC023F01AC022F019C021F020C028F03B
:100A00001FC027F01EC026F01DC025F0A0D52EE087
:100A1000890EE96E1CC024F01BC023F01AC022F01E
:100A200019C021F0020E256ECFDE200E2E6EACDE38
:100A3000890EE96E20C024F01FC023F01EC022F0F2
:100A40001DC021F0020E256EBFDE0A0E2E6E9CDE4A
:100A50000D0E2E6E99DE1CC020F01BC01FF01AC0B8
:100A60001EF019C01DF00A0E216E6AD7A9D7000E1C
:040A7000016E030010
:020000040030CA
:0E00000000220E0E000181000FC00FE00F4025
:00000001FF
;PIC18F252
;CRC=E89F  CREATED="09-out-14 16:29"
